:020000040000fa
:080000000002040000000000f2
:020000040000fa
:100400008fa0200000ff27000001880000000000ee
:100410000c000700a0762000010020001d0007004e
:10042000100020000000e00002003200e4020200a0
:100430000000000018070200000000000040da0081
:100440000000fe00000020000000e000020032007a
:10045000000020009001880000000600f03fb1007d
:100460000180b10006003500ee0309000000000025
:10047000403fb1000180b100fbff3d001000b00023
:10048000203fb0000200350000800900000000009d
:1004900000000600a1028800800078000000eb0048
:1004a0001a003700e280400054a0b4009101ba0065
:1004b000e280400054a0b4009102ba00e280400003
:1004c00054a0b4000002eb00472bde00f507b20099
:1004d000a6018800602ce10008003a000049eb000a
:1004e0000201e800020039003420ec0002f0a00014
:1004f0008301e900f9ff3e00040037006128e100b4
:10050000010032000082eb00040007001101ba0074
:100510000200e000e3ff3a000000060004d0a30060
:10052000e20f49001c003900810278003549ba0009
:100530000201e800020039003420ec0002f0a000c3
:100540008301e9000f0032002549ba000201e800ea
:10055000020039003420ec0002f0a0008301e90021
:10056000080032000400e0000600320015c9ba009d
:100570000201e800020039003420ec0002f0a00083
:100580008301e9008180e80054a0b4000300e0008a
:10059000e2ff3a00000006009102ba000559780017
:1005a0008301e900f7ff3200c82ade000559780010
:1005b0008301e900f3ff32000400e000f1ff3200a4
:1005c00011d9ba00eeff37000e070200000000004c
:1005d0009c06020000000000000006005400f80025
:1005e000a10288008002780062004000e08048009c
:1005f0003549ba003204e0000410a70010003200b0
:100600008301e9000e0032002549ba003204e000ff
:100610000410a7000a0032008301e900080032003c
:100620000408a300eeff320015c9ba003204e0004e
:100630000410a700020032008301e900e8ff3a003d
:100640005400f900000006005400f800a1028800e0
:10065000023b88000008bb000500fc00510520009b
:10066000313b8800a10a2000313b880061e7a800e7
:1006700000000000000000005400f9000000060027
:100680000400a100010037000400a0005400f8009d
:10069000a102880011002400013b8800f10f200016
:1006a0003208bb000400a700b20078000198bb002c
:1006b0008301e900faff3a00680151000400a70035
:1006c00068015100680050001208bb00e2ff3700cb
:1006d000f30f20005400f800a1028800310024002c
:1006e000013b88000208bb000388bb00daff37002b
:0c06f0005400f800003b8800d7ff3700e2
:020000040000fa
:020000040005f5
:0457f800ff7f00002f
:020000040000fa
:100008007207000072070000720700007207000004
:1000180072070000720700007207000072070000f4
:1000280072070000720700007207000072070000e4
:1000380072070000720700007207000072070000d4
:020000040000fa
:020000040000fa
:1006fc000800fa00008fbe00e0ff2f00f107200079
:10070c009e0178001e029000000178000100780024
:10071c0002816100000062006102b80024079800a9
:10072c00350798002e009000be009000c000dd0040
:10073c000000200020079800310798002e00900040
:10074c00be0090006112b80024079800350798008d
:10075c002e019000be01900002007000838070009a
:10076c000080fa00000006000800fa00008fbe00ae
:10077c0000c02f00f10720009e0178001e0290009f
:10078c000001780001007800028161000000620025
:10079c006102b80024079800350798002e009000dd
:1007ac00be009000c000dd00000020002007980073
:1007bc00310798002e009000be0090006112b80026
:1007cc0024079800350798002e019000be01900078
:1007dc0002007000838070000080fa0000000600a8
:1007ec000800fa00008fbe0000f82f00f10720006f
:1007fc009e0178001e029000000178000100780034
:10080c0002816100000062006102b80024079800b8
:10081c00350798002e009000be009000c000dd004f
:10082c000000200020079800310798002e0090004f
:10083c00be0090006112b80024079800350798009c
:10084c002e019000be0190000200700083807000a9
:10085c000080fa00000006000600fa00008fbe00bf
:10086c00220798001e00be00ddff070014002000c8
:10087c00030c20002e01900055ff07000080fa00a9
:10088c00000006000600fa00008fbe002207980048
:10089c001e00be00b4ff07001400200003602000ff
:1008ac002e0190004aff07000080fa0000000600ad
:1008bc000400fa00008fbe001e00be0002000700fc
:1008cc000080fa00000006000800fa0020079800db
:1008dc00310798002e009000be00900084ff0700a6
:1008ec0014002000330020000e01780038ff0700b0
:1008fc009e4078001e40900080c060002e4090000a
:10090c0000c06000e14f400003003a0000c0eb0063
:10091c0030479800020037000040eb003047980049
:10092c000e0078001000be000080fa0000000600e7
:10093c000800fa00008fbe00220798000c00370058
:10094c001e00be00e0ff0700e00f5000e08f5800d3
:10095c00030034000000eb00300798000c00370057
:10096c0020002000010020001e0f40005e97480070
:10097c002e0090000000e900200798002e00900047
:10098c00e10f4000eeff3a00110020003107980003
:10099c003e0090000080fa00000006001200fa00f1
:1009ac00008fbe002207980033079800044f980070
:1009bc001e00be004eff0700008fbe001e00be00d2
:1009cc00c1ff0700e00f5000e08f58000400340016
:1009dc006000b80070079800010f98001f003700e6
:1009ec000e4890000004e000050032002e0190003b
:1009fc00be0190001e00be0033ff0700030037004d
:100a0c002e0190001e00be002eff070061e7af0014
:100a1c00feff370061c7bf000042b2000004e000d7
:100a2c0007003a0020002000010020003e01400099
:100a3c00ae81480052079800630798000300370006
:100a4c006011b80052079800630798005e00900090
:100a5c00ee00900070079800010f98007e00900047
:100a6c008e0890000080fa00000006000800fa00d2
:100a7c00008fbe00220798003307980014c0b30003
:100a8c002e019000be0190001e00be00c3ff0700a7
:100a9c000080fa00000006000600fa00008fbe007d
:100aac00220798002e0090006101b9000042eb0073
:100abc001e00be00b9ff07000080fa00000006000f
:100acc000a00fa00200798003107980020772000d0
:100adc000110200024ff0700008fbe000000eb0077
:100aec00400798002e009000be009000be0f5000f2
:100afc00ae8f58000200360010002000400798000e
:100b0c004e0090000080fa00000006000c00fa0075
:100b1c00008fbe001e00be0013ff0700008fbe003a
:100b2c001e00be00e6ff07000000e00004003a00d3
:100b3c006000b80040079800510798001700370074
:100b4c00220424001e00be00bcfe070061e7af00bb
:100b5c00feff370061c7bf000042b2000004e00096
:100b6c0007003a0000402000010020003e01400038
:100b7c00ae81480022079800330798000300370025
:100b8c006000b80020079800310798002e019000f3
:100b9c00be01900042079800530798004e00900049
:100bac00de0090000080fa00000006000600fa004b
:100bbc00000f780011079800220798000200090026
:100bcc00315878000058eb000201e900fbff3a00b5
:100bdc000080fa00000006000e01fa0000079900e0
:100bec0011079900220799000e0091009e009100b8
:100bfc00fbfe070000079900110799000204200072
:100c0c000e0091009e00910049ff07000000e000db
:100c1c0004003a006000b800500799006107990081
:100c2c001e003700ae0091000e0078000204200078
:100c3c00deff0700030420000e0178000e00910077
:100c4c009e0091008dfe070061e7af00feff3700ac
:100c5c0061c7bf000042b2000004e00008003a0087
:100c6c000e0091009e0091000001be000208b00031
:100c7c000380b00032079900430799000300370046
:100c8c006000b80030079900410799003e019100bf
:100c9c00ce01910052079900630799005e00910004
:100cac00ee0091000080fa00000006000600fa0039
:100cbc00008fbe00220798001e00be00aafe07008f
:100ccc00008fbe002e0190001e00be00c2ff070068
:100cdc00008fbe001e00be00e00f5000e08f5800d9
:100cec00080032002e009000000cb0002007980085
:100cfc001e00be009cfe0700be0f5000ae8f5800b9
:100d0c00f0ff3a001e00be000080fa000000060052
:100d1c000200fa00000f78001e00780030408800b6
:100d2c000000fe000080fa00000006000000fa003f
:100d3c00c0bf2a00211020005c0007000000e0006a
:100d4c0001003d00ffff3700013a80003008200011
:100d5c00808f500001003a0040e7a900003a800063
:100d6c00e30f5000020032004007a90001003700d9
:100d7c004027a900003a8000630060000000e000fa
:100d8c00020032000000eb0030408800314080004f
:100d9c0000c023000080600030408800013a8000d1
:100dac00f03f2c008080600030408000008070009c
:100dbc0030408800013a800000d22300008060009f
:100dcc00003a88000080fa00000006000000fa00db
:100ddc00003a8000f12d2c00010060000000e000c2
:100dec0001003200d1ff0700304080000080fa0083
:100dfc00000006000000fa000000eb001040880024
:100e0c000000eb00204088000080fa000000060083
:100e1c004800fa000000eb00000f78000080fa0098
:100e2c00000006000000fa00c0bf2a0021102000bc
:100e3c001e0007000000e00003003d0000482800f1
:100e4c00e101200082fd0700e0ff07000040880060
:100e5c000140800030082000008060000000e000ad
:100e6c0001003200e3ff07001140800000408000c9
:100e7c000080700010408800204080000000e800d6
:100e8c0020408800104080004400de0061006000bb
:100e9c000000e00002003a0040a7a800ffff370066
:100eac00ffff3700f10f2000000020005400f80075
:100ebc00a1028800800078003100ba009100ba00cd
:080ecc005400f90000000600cb
:020000040000fa
:100ed4000008000002000000800000000000000084
:020000040000fa
:040ee4000000fe000c
:00000001FF
